{
  "transactions": [
    {
      "hash": "0xd42757f9918a79953672aece42265b1b08ea782d024b88f8ccd7ac25ae1e58d0",
      "transactionType": "CALL",
      "contractName": "Pogs",
      "contractAddress": "0xe96E13E73f51707fB1c46A5c1a143d3F99334bbB",
      "function": "setUnrevealedURI(string)",
      "arguments": [
        ""
      ],
      "rpc": "https://goerli.infura.io/v3/33978c8e5245402d8c8388ddc806ef1d",
      "transaction": {
        "type": "0x02",
        "from": "0x42c7ef198f8ac9888e2b1b73e5b71f1d4535194a",
        "to": "0xe96e13e73f51707fb1c46a5c1a143d3f99334bbb",
        "gas": "0xd6d3",
        "value": "0x0",
        "data": "0xfe2c7fee00000000000000000000000000000000000000000000000000000000000000200000000000000000000000000000000000000000000000000000000000000000",
        "nonce": "0x67",
        "accessList": []
      },
      "additionalContracts": [],
      "isFixedGasLimit": false
    }
  ],
  "receipts": [],
  "libraries": [],
  "pending": [
    "0xd42757f9918a79953672aece42265b1b08ea782d024b88f8ccd7ac25ae1e58d0"
  ],
  "path": "/home/shakes/pineapple/pogs/pog-mint-contract/broadcast/Config.s.sol/5/run-latest.json",
  "returns": {},
  "timestamp": 1680747505,
  "chain": 5,
  "multi": false,
  "commit": "0e6fba0"
}