{
  "transactions": [
    {
      "hash": "0x6377eabf3281f74cc2ebfca92b0752cbd4205acf837f9cacaca6dc5340c1acc5",
      "transactionType": "CALL",
      "contractName": "Pogs",
      "contractAddress": "0xb10506F8FCCf563a4271d4F57D0b53a86A43A9d9",
      "function": "setUnrevealedURI(string)",
      "arguments": [
        "https://apricot-persistent-lion-833.mypinata.cloud/ipfs/QmWhyWwY4uz61LafBZugdcf8wjNeStdxYi29Q5ruePX1MD"
      ],
      "rpc": "https://goerli.infura.io/v3/33978c8e5245402d8c8388ddc806ef1d",
      "transaction": {
        "type": "0x02",
        "from": "0x42c7ef198f8ac9888e2b1b73e5b71f1d4535194a",
        "to": "0xb10506f8fccf563a4271d4f57d0b53a86a43a9d9",
        "gas": "0x30ee6",
        "value": "0x0",
        "data": "0xfe2c7fee0000000000000000000000000000000000000000000000000000000000000020000000000000000000000000000000000000000000000000000000000000006668747470733a2f2f61707269636f742d70657273697374656e742d6c696f6e2d3833332e6d7970696e6174612e636c6f75642f697066732f516d57687957775934757a36314c6166425a756764636638776a4e65537464785969323951357275655058314d440000000000000000000000000000000000000000000000000000",
        "nonce": "0x5c",
        "accessList": []
      },
      "additionalContracts": [],
      "isFixedGasLimit": false
    },
    {
      "hash": "0x395019e80cd936f0eeb4beb0452ede8755197882ee23bb74994c133284c34ada",
      "transactionType": "CALL",
      "contractName": "Pogs",
      "contractAddress": "0xb10506F8FCCf563a4271d4F57D0b53a86A43A9d9",
      "function": "setSession(uint8)",
      "arguments": [
        "1"
      ],
      "rpc": "https://goerli.infura.io/v3/33978c8e5245402d8c8388ddc806ef1d",
      "transaction": {
        "type": "0x02",
        "from": "0x42c7ef198f8ac9888e2b1b73e5b71f1d4535194a",
        "to": "0xb10506f8fccf563a4271d4f57d0b53a86a43a9d9",
        "gas": "0x1067a",
        "value": "0x0",
        "data": "0x3711e4e80000000000000000000000000000000000000000000000000000000000000001",
        "nonce": "0x5d",
        "accessList": []
      },
      "additionalContracts": [],
      "isFixedGasLimit": false
    }
  ],
  "receipts": [
    {
      "transactionHash": "0x6377eabf3281f74cc2ebfca92b0752cbd4205acf837f9cacaca6dc5340c1acc5",
      "transactionIndex": "0x17",
      "blockHash": "0x7700b80d37f1d95078703073286f06a5275b0deba812b9d2bece01156ec19480",
      "blockNumber": "0x85f8e8",
      "from": "0x42C7eF198f8aC9888E2B1b73e5B71f1D4535194A",
      "to": "0xb10506F8FCCf563a4271d4F57D0b53a86A43A9d9",
      "cumulativeGasUsed": "0x263efd",
      "gasUsed": "0x21751",
      "contractAddress": null,
      "logs": [],
      "status": "0x1",
      "logsBloom": "0x00000000000000000000000000000000000000000000000000000000000000000000000000000000000000000000000000000000000000000000000000000000000000000000000000000000000000000000000000000000000000000000000000000000000000000000000000000000000000000000000000000000000000000000000000000000000000000000000000000000000000000000000000000000000000000000000000000000000000000000000000000000000000000000000000000000000000000000000000000000000000000000000000000000000000000000000000000000000000000000000000000000000000000000000000000000",
      "type": "0x2",
      "effectiveGasPrice": "0x63f2d29e0"
    },
    {
      "transactionHash": "0x395019e80cd936f0eeb4beb0452ede8755197882ee23bb74994c133284c34ada",
      "transactionIndex": "0x18",
      "blockHash": "0x7700b80d37f1d95078703073286f06a5275b0deba812b9d2bece01156ec19480",
      "blockNumber": "0x85f8e8",
      "from": "0x42C7eF198f8aC9888E2B1b73e5B71f1D4535194A",
      "to": "0xb10506F8FCCf563a4271d4F57D0b53a86A43A9d9",
      "cumulativeGasUsed": "0x26f276",
      "gasUsed": "0xb379",
      "contractAddress": null,
      "logs": [],
      "status": "0x1",
      "logsBloom": "0x00000000000000000000000000000000000000000000000000000000000000000000000000000000000000000000000000000000000000000000000000000000000000000000000000000000000000000000000000000000000000000000000000000000000000000000000000000000000000000000000000000000000000000000000000000000000000000000000000000000000000000000000000000000000000000000000000000000000000000000000000000000000000000000000000000000000000000000000000000000000000000000000000000000000000000000000000000000000000000000000000000000000000000000000000000000",
      "type": "0x2",
      "effectiveGasPrice": "0x63f2d29e0"
    }
  ],
  "libraries": [],
  "pending": [],
  "path": "/home/shakes/pineapple/pogs/pog-mint-contract/broadcast/Config.s.sol/5/run-latest.json",
  "returns": {},
  "timestamp": 1680727699,
  "chain": 5,
  "multi": false,
  "commit": "0e6fba0"
}