{
  "transactions": [
    {
      "hash": "0xbe8811304fa28315cfa9cafba358773566e4a8a01c18034b0d3b022bc6a82377",
      "transactionType": "CALL",
      "contractName": "Pogs",
      "contractAddress": "0xe96E13E73f51707fB1c46A5c1a143d3F99334bbB",
      "function": "setUnrevealedURI(string)",
      "arguments": [
        "https://apricot-persistent-lion-833.mypinata.cloud/ipfs/QmWhyWwY4uz61LafBZugdcf8wjNeStdxYi29Q5ruePX1MD"
      ],
      "rpc": "https://goerli.infura.io/v3/33978c8e5245402d8c8388ddc806ef1d",
      "transaction": {
        "type": "0x02",
        "from": "0x42c7ef198f8ac9888e2b1b73e5b71f1d4535194a",
        "to": "0xe96e13e73f51707fb1c46a5c1a143d3f99334bbb",
        "gas": "0x30ee6",
        "value": "0x0",
        "data": "0xfe2c7fee0000000000000000000000000000000000000000000000000000000000000020000000000000000000000000000000000000000000000000000000000000006668747470733a2f2f61707269636f742d70657273697374656e742d6c696f6e2d3833332e6d7970696e6174612e636c6f75642f697066732f516d57687957775934757a36314c6166425a756764636638776a4e65537464785969323951357275655058314d440000000000000000000000000000000000000000000000000000",
        "nonce": "0x62",
        "accessList": []
      },
      "additionalContracts": [],
      "isFixedGasLimit": false
    },
    {
      "hash": "0x5ec18a05f84325e0979e3ae5d4e6830d7d0aaeda9aa019e1610c6f89a2ae46f0",
      "transactionType": "CALL",
      "contractName": "Pogs",
      "contractAddress": "0xe96E13E73f51707fB1c46A5c1a143d3F99334bbB",
      "function": "mintForTeam(address,uint16)",
      "arguments": [
        "0x3Ce7D5657012Aee30663546Ebcb232bE875745BD",
        "644"
      ],
      "rpc": "https://goerli.infura.io/v3/33978c8e5245402d8c8388ddc806ef1d",
      "transaction": {
        "type": "0x02",
        "from": "0x42c7ef198f8ac9888e2b1b73e5b71f1d4535194a",
        "to": "0xe96e13e73f51707fb1c46a5c1a143d3f99334bbb",
        "gas": "0x1c4d16",
        "value": "0x0",
        "data": "0xdaddacd30000000000000000000000003ce7d5657012aee30663546ebcb232be875745bd0000000000000000000000000000000000000000000000000000000000000284",
        "nonce": "0x63",
        "accessList": []
      },
      "additionalContracts": [],
      "isFixedGasLimit": false
    },
    {
      "hash": "0xef48151a9854cd74291b6abff80cdb09d4ec2240a1b3bbd5921fc7acde87b144",
      "transactionType": "CALL",
      "contractName": "Pogs",
      "contractAddress": "0xe96E13E73f51707fB1c46A5c1a143d3F99334bbB",
      "function": "setSession(uint8)",
      "arguments": [
        "1"
      ],
      "rpc": "https://goerli.infura.io/v3/33978c8e5245402d8c8388ddc806ef1d",
      "transaction": {
        "type": "0x02",
        "from": "0x42c7ef198f8ac9888e2b1b73e5b71f1d4535194a",
        "to": "0xe96e13e73f51707fb1c46a5c1a143d3f99334bbb",
        "gas": "0x1067a",
        "value": "0x0",
        "data": "0x3711e4e80000000000000000000000000000000000000000000000000000000000000001",
        "nonce": "0x64",
        "accessList": []
      },
      "additionalContracts": [],
      "isFixedGasLimit": false
    }
  ],
  "receipts": [],
  "libraries": [],
  "pending": [
    "0xbe8811304fa28315cfa9cafba358773566e4a8a01c18034b0d3b022bc6a82377",
    "0x5ec18a05f84325e0979e3ae5d4e6830d7d0aaeda9aa019e1610c6f89a2ae46f0",
    "0xef48151a9854cd74291b6abff80cdb09d4ec2240a1b3bbd5921fc7acde87b144"
  ],
  "path": "/home/shakes/pineapple/pogs/pog-mint-contract/broadcast/Config.s.sol/5/run-latest.json",
  "returns": {},
  "timestamp": 1680744569,
  "chain": 5,
  "multi": false,
  "commit": "0e6fba0"
}