{
  "transactions": [
    {
      "hash": "0xc54eb29f46f6990f15c87f9596aa3614c410a0155c4ac54d311b8fa51b2a03ba",
      "transactionType": "CALL",
      "contractName": "Pogs",
      "contractAddress": "0x14253e118D0CFa90528BA864260397026f48b2af",
      "function": "setUnrevealedURI(string)",
      "arguments": [
        "https://unrevealed.com"
      ],
      "rpc": "https://goerli.infura.io/v3/33978c8e5245402d8c8388ddc806ef1d",
      "transaction": {
        "type": "0x02",
        "from": "0x42c7ef198f8ac9888e2b1b73e5b71f1d4535194a",
        "to": "0x14253e118d0cfa90528ba864260397026f48b2af",
        "gas": "0xfd44",
        "value": "0x0",
        "data": "0xfe2c7fee0000000000000000000000000000000000000000000000000000000000000020000000000000000000000000000000000000000000000000000000000000001668747470733a2f2f756e72657665616c65642e636f6d00000000000000000000",
        "nonce": "0x3c",
        "accessList": []
      },
      "additionalContracts": [],
      "isFixedGasLimit": false
    },
    {
      "hash": "0xc6867929ff9d68a9f42163ed3b0e2bdf15f9844f9b3918bcae260ec5ab7922e3",
      "transactionType": "CALL",
      "contractName": "Pogs",
      "contractAddress": "0x14253e118D0CFa90528BA864260397026f48b2af",
      "function": "setBaseURI(string)",
      "arguments": [
        "https://gateway.pinata.cloud/ipfs/QmdZjJGvagHh1BsFPDpYJFKgkj9GnWMJVBqLbH11bsXVwg/"
      ],
      "rpc": "https://goerli.infura.io/v3/33978c8e5245402d8c8388ddc806ef1d",
      "transaction": {
        "type": "0x02",
        "from": "0x42c7ef198f8ac9888e2b1b73e5b71f1d4535194a",
        "to": "0x14253e118d0cfa90528ba864260397026f48b2af",
        "gas": "0x28dbe",
        "value": "0x0",
        "data": "0x55f804b30000000000000000000000000000000000000000000000000000000000000020000000000000000000000000000000000000000000000000000000000000005168747470733a2f2f676174657761792e70696e6174612e636c6f75642f697066732f516d645a6a4a47766167486831427346504470594a464b676b6a39476e574d4a5642714c624831316273585677672f000000000000000000000000000000",
        "nonce": "0x3d",
        "accessList": []
      },
      "additionalContracts": [],
      "isFixedGasLimit": false
    },
    {
      "hash": "0x0398025513475c76f38bd57e34a393b2e7a49e81adb839cc9bba3facdcb33823",
      "transactionType": "CALL",
      "contractName": "Pogs",
      "contractAddress": "0x14253e118D0CFa90528BA864260397026f48b2af",
      "function": "mintForTeam(address,uint16)",
      "arguments": [
        "0x42C7eF198f8aC9888E2B1b73e5B71f1D4535194A",
        "644"
      ],
      "rpc": "https://goerli.infura.io/v3/33978c8e5245402d8c8388ddc806ef1d",
      "transaction": {
        "type": "0x02",
        "from": "0x42c7ef198f8ac9888e2b1b73e5b71f1d4535194a",
        "to": "0x14253e118d0cfa90528ba864260397026f48b2af",
        "gas": "0x21b53",
        "value": "0x0",
        "data": "0xdaddacd300000000000000000000000042c7ef198f8ac9888e2b1b73e5b71f1d4535194a0000000000000000000000000000000000000000000000000000000000000284",
        "nonce": "0x3e",
        "accessList": []
      },
      "additionalContracts": [],
      "isFixedGasLimit": false
    },
    {
      "hash": "0xba1fd9a1002ab2be8f3048c23f1aa8a0066ea36d459c551723e2f0b460b4f6b0",
      "transactionType": "CALL",
      "contractName": "Pogs",
      "contractAddress": "0x14253e118D0CFa90528BA864260397026f48b2af",
      "function": "setSession(uint8)",
      "arguments": [
        "1"
      ],
      "rpc": "https://goerli.infura.io/v3/33978c8e5245402d8c8388ddc806ef1d",
      "transaction": {
        "type": "0x02",
        "from": "0x42c7ef198f8ac9888e2b1b73e5b71f1d4535194a",
        "to": "0x14253e118d0cfa90528ba864260397026f48b2af",
        "gas": "0x1067a",
        "value": "0x0",
        "data": "0x3711e4e80000000000000000000000000000000000000000000000000000000000000001",
        "nonce": "0x3f",
        "accessList": []
      },
      "additionalContracts": [],
      "isFixedGasLimit": false
    }
  ],
  "receipts": [],
  "libraries": [],
  "pending": [
    "0xc54eb29f46f6990f15c87f9596aa3614c410a0155c4ac54d311b8fa51b2a03ba",
    "0xc6867929ff9d68a9f42163ed3b0e2bdf15f9844f9b3918bcae260ec5ab7922e3",
    "0x0398025513475c76f38bd57e34a393b2e7a49e81adb839cc9bba3facdcb33823",
    "0xba1fd9a1002ab2be8f3048c23f1aa8a0066ea36d459c551723e2f0b460b4f6b0"
  ],
  "path": "/home/shakes/pineapple/pogs/pog-mint-contract/broadcast/Config.s.sol/5/run-latest.json",
  "returns": {},
  "timestamp": 1680634061,
  "chain": 5,
  "multi": false,
  "commit": "1b99f73"
}