{
  "transactions": [
    {
      "hash": "0xd08d543f0ad0c3fbfd42736d4c606801aa973808dca8b721b801003f253bf269",
      "transactionType": "CALL",
      "contractName": "Pogs",
      "contractAddress": "0x14253e118D0CFa90528BA864260397026f48b2af",
      "function": "setBaseURI(string)",
      "arguments": [
        "https://gateway.pinata.cloud/ipfs/QmdZjJGvagHh1BsFPDpYJFKgkj9GnWMJVBqLbH11bsXVwg/"
      ],
      "rpc": "https://goerli.infura.io/v3/33978c8e5245402d8c8388ddc806ef1d",
      "transaction": {
        "type": "0x02",
        "from": "0x42c7ef198f8ac9888e2b1b73e5b71f1d4535194a",
        "to": "0x14253e118d0cfa90528ba864260397026f48b2af",
        "gas": "0xc7d3",
        "value": "0x0",
        "data": "0x55f804b30000000000000000000000000000000000000000000000000000000000000020000000000000000000000000000000000000000000000000000000000000005168747470733a2f2f676174657761792e70696e6174612e636c6f75642f697066732f516d645a6a4a47766167486831427346504470594a464b676b6a39476e574d4a5642714c624831316273585677672f000000000000000000000000000000",
        "nonce": "0x47",
        "accessList": []
      },
      "additionalContracts": [],
      "isFixedGasLimit": false
    },
    {
      "hash": "0x37a0e40b0abdbdce163920656832f592f6c2b009f8d11b1328d893407b56d135",
      "transactionType": "CALL",
      "contractName": "Pogs",
      "contractAddress": "0x14253e118D0CFa90528BA864260397026f48b2af",
      "function": "setIsRevealed(bool)",
      "arguments": [
        "true"
      ],
      "rpc": "https://goerli.infura.io/v3/33978c8e5245402d8c8388ddc806ef1d",
      "transaction": {
        "type": "0x02",
        "from": "0x42c7ef198f8ac9888e2b1b73e5b71f1d4535194a",
        "to": "0x14253e118d0cfa90528ba864260397026f48b2af",
        "gas": "0x9475",
        "value": "0x0",
        "data": "0x49a5980a0000000000000000000000000000000000000000000000000000000000000001",
        "nonce": "0x48",
        "accessList": []
      },
      "additionalContracts": [],
      "isFixedGasLimit": false
    }
  ],
  "receipts": [
    {
      "transactionHash": "0xd08d543f0ad0c3fbfd42736d4c606801aa973808dca8b721b801003f253bf269",
      "transactionIndex": "0xa",
      "blockHash": "0xaaf158b07fbb35d3588b9fcdd2cc3d60ac6884c30cc38844aaa9d76eb7aead77",
      "blockNumber": "0x85e702",
      "from": "0x42C7eF198f8aC9888E2B1b73e5B71f1D4535194A",
      "to": "0x14253e118D0CFa90528BA864260397026f48b2af",
      "cumulativeGasUsed": "0x6fb05",
      "gasUsed": "0x88a2",
      "contractAddress": null,
      "logs": [],
      "status": "0x1",
      "logsBloom": "0x00000000000000000000000000000000000000000000000000000000000000000000000000000000000000000000000000000000000000000000000000000000000000000000000000000000000000000000000000000000000000000000000000000000000000000000000000000000000000000000000000000000000000000000000000000000000000000000000000000000000000000000000000000000000000000000000000000000000000000000000000000000000000000000000000000000000000000000000000000000000000000000000000000000000000000000000000000000000000000000000000000000000000000000000000000000",
      "type": "0x2",
      "effectiveGasPrice": "0x29fba9450"
    },
    {
      "transactionHash": "0x37a0e40b0abdbdce163920656832f592f6c2b009f8d11b1328d893407b56d135",
      "transactionIndex": "0xb",
      "blockHash": "0xaaf158b07fbb35d3588b9fcdd2cc3d60ac6884c30cc38844aaa9d76eb7aead77",
      "blockNumber": "0x85e702",
      "from": "0x42C7eF198f8aC9888E2B1b73e5B71f1D4535194A",
      "to": "0x14253e118D0CFa90528BA864260397026f48b2af",
      "cumulativeGasUsed": "0x76088",
      "gasUsed": "0x6583",
      "contractAddress": null,
      "logs": [],
      "status": "0x1",
      "logsBloom": "0x00000000000000000000000000000000000000000000000000000000000000000000000000000000000000000000000000000000000000000000000000000000000000000000000000000000000000000000000000000000000000000000000000000000000000000000000000000000000000000000000000000000000000000000000000000000000000000000000000000000000000000000000000000000000000000000000000000000000000000000000000000000000000000000000000000000000000000000000000000000000000000000000000000000000000000000000000000000000000000000000000000000000000000000000000000000",
      "type": "0x2",
      "effectiveGasPrice": "0x29fba9450"
    }
  ],
  "libraries": [],
  "pending": [],
  "path": "/home/shakes/pineapple/pogs/pog-mint-contract/broadcast/Reveal.s.sol/5/run-latest.json",
  "returns": {},
  "timestamp": 1680658229,
  "chain": 5,
  "multi": false,
  "commit": "1b99f73"
}