{
  "transactions": [
    {
      "hash": "0x4a2f1c6328e73ddd6fb554e64eb6759d692ece28d389a0e9eddfdc6c66212ad5",
      "transactionType": "CALL",
      "contractName": "Pogs",
      "contractAddress": "0x14253e118D0CFa90528BA864260397026f48b2af",
      "function": "setSession(uint8)",
      "arguments": [
        "3"
      ],
      "rpc": "https://goerli.infura.io/v3/33978c8e5245402d8c8388ddc806ef1d",
      "transaction": {
        "type": "0x02",
        "from": "0x42c7ef198f8ac9888e2b1b73e5b71f1d4535194a",
        "to": "0x14253e118d0cfa90528ba864260397026f48b2af",
        "gas": "0x8c85",
        "value": "0x0",
        "data": "0x3711e4e80000000000000000000000000000000000000000000000000000000000000003",
        "nonce": "0x46",
        "accessList": []
      },
      "additionalContracts": [],
      "isFixedGasLimit": false
    }
  ],
  "receipts": [
    {
      "transactionHash": "0x4a2f1c6328e73ddd6fb554e64eb6759d692ece28d389a0e9eddfdc6c66212ad5",
      "transactionIndex": "0xc",
      "blockHash": "0xb3cc3750f3efb32b0fa0bb9a2ec75469f7b10a9911d1e45c776de8893fa1d9ba",
      "blockNumber": "0x85e6fa",
      "from": "0x42C7eF198f8aC9888E2B1b73e5B71f1D4535194A",
      "to": "0x14253e118D0CFa90528BA864260397026f48b2af",
      "cumulativeGasUsed": "0x94dd2",
      "gasUsed": "0x65bd",
      "contractAddress": null,
      "logs": [],
      "status": "0x1",
      "logsBloom": "0x00000000000000000000000000000000000000000000000000000000000000000000000000000000000000000000000000000000000000000000000000000000000000000000000000000000000000000000000000000000000000000000000000000000000000000000000000000000000000000000000000000000000000000000000000000000000000000000000000000000000000000000000000000000000000000000000000000000000000000000000000000000000000000000000000000000000000000000000000000000000000000000000000000000000000000000000000000000000000000000000000000000000000000000000000000000",
      "type": "0x2",
      "effectiveGasPrice": "0x2af362592"
    }
  ],
  "libraries": [],
  "pending": [],
  "path": "/home/shakes/pineapple/pogs/pog-mint-contract/broadcast/PublicMint.s.sol/5/run-latest.json",
  "returns": {},
  "timestamp": 1680658136,
  "chain": 5,
  "multi": false,
  "commit": "1b99f73"
}